S01B00004D5154545F333238505F4D6F7371756974746F2E7372656343
S11300000C94BE000C94DB000C94DB000C94DB001D
S11300100C94DB000C94DB000C94DB000C94DB00F0
S11300200C94DB000C94BB020C94DB000C94DB00FE
S11300300C94DB000C94DB000C94DB000C94DB00D0
S11300400C94DB000C94DB000C94DB000C94DB00C0
S11300500C94DB000C94DB000C94DB000C94DB00B0
S11300600C94DB000C94DB000D0A00416E67756C88
S11300706F20536572766F3A0056616C6F72204F31
S11300806274656E69646F2E2E2E0D0A0054656DC0
S1130090703A25642048756D523A25640D0A004172
S11300A0542B43495053454E440D0A0041542B43AD
S11300B049504D4F44453D310D0A0041542B4349AD
S11300C05053544152543D22544350222C22257300
S11300D0222C25730D0A0041542B4349504D555889
S11300E03D300D0A000D0A0049503A200041542BBE
S11300F043494653520D0A0041540D0A000D0A00AB
S11301002B2B2B000D0A0041542B43574A41503FDF
S11301100D0A0041540D0A000D0A002B2B2B00413F
S1130120542B43574A41503D222573222C222573D8
S1130130220D0A004E6F2068617920526564210DFA
S11301400A20436F6E656374616E646F2E2E2E0DEC
S11301500A000D0A00596120657374617320636F8E
S11301606E65637461646F2061206C612052454444
S1130170212C20004C6973746F0D0A0011241FBEDA
S1130180CFEFD8E0DEBFCDBF15E0A0E0B1E0EAE6F6
S1130190FCE102C005900D92A63DB107D9F725E018
S11301A0A6EDB5E001C01D92A23EB207E1F70E94A0
S11301B033060C94330E0C940000FC01908121E072
S11301C030E002C0220F331F6A95E2F720952923FD
S11301D020830895FC01908121E030E002C0220FC9
S11301E0331F6A95E2F720952923208308950F93FE
S11301F01F93CF93DF938C01DC0112968C9112979D
S11302001596ED91FC9116972081C1E0D0E0AE01E6
S113021002C0440F551F8A95E2F7CA01822B8083DE
S113022012966C9112978D919C910E94EA008FE333
S11302309CE90197F1F700C00000D80112969C9147
S11302401297ED91FC91808102C0CC0FDD1F9A952D
S1130250E2F7C82BC083DF91CF911F910F910895CE
S1130260CF93DF93EC016A818D819E810E94DD0032
S1130270EB81FC8141E050E08A812081BA0102C017
S1130280660F771F8A95E2F7CB018223A9F741E035
S113029050E08A812081BA0102C0660F771F8A95D7
S11302A0E2F7CB018223A9F341E050E08A81208167
S11302B0BA0102C0660F771F8A95E2F7CB01822349
S11302C0A9F7DF91CF910895CF93DF93FC0168E004
S11302D080E041E050E0A381B48122819C91EA0155
S11302E002C0CC0FDD1F2A95E2F79E012923A9F352
S11302F0D0E5DA95F1F72281A381B4819C91EA01DA
S113030002C0CC0FDD1F2A95E2F79E01292319F0C4
S1130310880F816001C0880F22819C91EA0102C08C
S1130320CC0FDD1F2A95E2F79E012923A9F761501E
S113033091F6DF91CF910895CF93DF93EC010E9462
S1130340F700CE010E943001CE010E9464018F8328
S1130350CE010E9464018887CE010E9464018987CE
S1130360CE010E9464018A87CE010E9464018B87BA
S1130370DF91CF9108958BB180588BB988E191E0DA
S11303800E942C07BC018FE492E00E9488088AEF47
S1130390EFE4F2E0DF011D928A95E9F785E0ECE7EE
S11303A0F5E0A3E2B1E001900D928A95E1F7809126
S11303B0D6051F928F93EFE4F3E087811F928F930A
S11303C081851F928F9381E895E09F938F9387E8AF
S11303D091E09F938F930E941E0B88E191E00E940D
S11303E08707BC018FE492E00E9488088BB1805893
S11303F08BB98DB79EB70A960FB6F8949EBF0FBE01
S11304008DBF089520E035E1F894269A2E9805B022
S113041093E0232F2A95F1F780FB06F896958795AC
S113042005B8B9F778940895CF93DF93EC018881E8
S1130430882331F021960E94020289918111FBCF19
S1130440DF91CF9108950F931F93CF93DF93CDB78F
S1130450DEB7C456D1090FB6F894DEBF0FBECDBFC8
S11304608FE493E00E949C01EFE4F3E087811F9204
S11304708F9381851F928F938DE890E09F938F9344
S11304808E010F5F1F4F1F930F930E94400BC801F3
S11304900E9414020FB6F894DEBF0FBECDBFCC5934
S11304A0DF4F0FB6F894DEBF0FBECDBFDF91CF9103
S11304B01F910F910895CF93DF93EC01FC01849178
S11304C0882349F0FE01219684910E940202FE01D4
S11304D084918111F7CFDF91CF9108958F929F92EC
S11304E0AF92BF92DF92EF92FF920F931F93CF933D
S11304F0DF937C019091E105992389F14A015B0125
S1130500D12CE70128E0D29EC00DD11D1124088111
S113051019810115110521F4EE81FF8109951AC095
S11305208A819B81AC81BD81A5019401281B390B73
S11305304A0B5B0BDA01C90120E030E08017910718
S1130540A207B30738F0EE81FF8109958A829B8266
S1130550AC82BD82D3948091E105D81690F2DF91EC
S1130560CF911F910F91FF90EF90DF90BF90AF90CC
S11305709F908F9008951F920F920FB60F9211249F
S11305808F939F93AF93BF938091DF058F5F809389
S1130590DF058091DF058230A9F48091DB0590911D
S11305A0DC05A091DD05B091DE050196A11DB11D0C
S11305B08093DB059093DC05A093DD05B093DE0505
S11305C01092DF05BF91AF919F918F910F900FBE55
S11305D00F901F9018958AB184698AB90895E0EB49
S11305E0F0E08081816A808382E08093B10081E0C1
S11305F0809370001092B20084B5816A84BD85B581
S1130600836085BD569A08956F927F928F929F92D0
S1130610AF92BF92CF92DF92EF92FF920F931F930C
S1130620CF93DF93EC0188810E9443088090DB051F
S11306309090DC05A090DD05B090DE053E0125EB31
S1130640620E711C8CE291E0F3019C011192215025
S11306503040E1F74091DB055091DC056091DD0508
S11306607091DE05FE01EF51FE4F80819181A281E0
S1130670B381880D991DAA1DBB1D481759076A0728
S11306807B0760F138C03FEFE31AF30A88810E94C8
S11306903708F80181938F0188810E9476088111BF
S11306A0F2CFFE01EE0DFF1DEB54FF4F108240917F
S11306B0DB055091DC056091DD057091DE05F601E6
S11306C080819181A281B381880D991DAA1DBB1DD2
S11306D0481759076A077B0740F00DC0E12CF12C3D
S11306E06E01FFE1CF1AFEEFDF0A87010B541F4FA3
S11306F00C0F1D1FD1CF8091E005882319F0C30191
S11307000E941402DF91CF911F910F91FF90EF90FF
S1130710DF90CF90BF90AF909F908F907F906F901D
S113072008956F927F928F929F92AF92BF92CF92D1
S1130730DF92EF92FF920F931F93CF93DF93EC011D
S11307408090DB059090DC05A090DD05B090DE057F
S113075088810E945B083E0125EB620E711C8CE2CD
S113076091E0F3019C01119221503040E1F7409156
S1130770DB055091DC056091DD057091DE05FE011D
S1130780EF51FE4F80819181A281B381880D991D23
S1130790AA1DBB1D481759076A077B0760F138C0BB
S11307A03FEFE31AF30A88810E943708F801819326
S11307B08F0188810E9476088111F2CFFE01EE0D2F
S11307C0FF1DEB54FF4F10824091DB055091DC0577
S11307D06091DD057091DE05F60180819181A28131
S11307E0B381880D991DAA1DBB1D481759076A07B7
S11307F07B0740F00DC0E12CF12C6E01FFE1CF1A14
S1130800FEEFDF0A87010B541F4F0C0F1D1FD1CFC2
S11308108091E005882319F0C3010E941402DF913E
S1130820CF911F910F91FF90EF90DF90CF90BF90E9
S1130830AF909F908F907F906F9008956F927F926A
S11308408F929F92AF92BF92CF92DF92EF92FF92DC
S11308500F931F93CF93DF93EC018090DB0590906F
S1130860DC05A090DD05B090DE053C0125EB620EB1
S1130870711C8CE291E0F3019C01119221503040F3
S1130880E1F74091DB055091DC056091DD05709145
S1130890DE05FE01EF51FE4F80819181A281B3817B
S11308A0880D991DAA1DBB1D481759076A077B07A8
S11308B060F138C03FEFE31AF30A88810E943708D9
S11308C0F80181938F0188810E9476088111F2CF0B
S11308D0FE01EE0DFF1DEB54FF4F10824091DB052E
S11308E05091DC056091DD057091DE05F601808193
S11308F09181A281B381880D991DAA1DBB1D481742
S113090059076A077B0740F00DC0E12CF12C6E01FA
S1130910FFE1CF1AFEEFDF0A87010B541F4F0C0FC4
S11309201D1FD1CF8091E005882319F0C3010E94D7
S11309301402DF91CF911F910F91FF90EF90DF9000
S1130940CF90BF90AF909F908F907F906F900895BD
S1130950EF92FF920F931F93CF93DF93EC018C01DF
S11309600B541F4F6BE171E088810E945B082FEFED
S113097089E698E1215080409040E1F700C00000F2
S113098068E171E0CE010E94910363E171E0CE0160
S11309900E9491036AE975E0C8010E94D50A892B77
S11309A009F780E991E0A0E0B0E0FE01EF51FE4FCD
S11309B080839183A283B38367E071E0CE010E94B8
S11309C0910360EA75E0802F912F0E94D50A11E00F
S11309D0009709F410E02091E005222331F00E94F1
S11309E0140284E091E00E945B02CF51DE4F88EC58
S11309F090E0A0E0B0E088839983AA83BB83812F31
S1130A00DF91CF911F910F91FF90EF900895CF92B6
S1130A10DF92EF92FF920F931F93CF93DF9300D057
S1130A20CDB7DEB78C017C0125EBE20EF11C60E052
S1130A3071E0F80180810E945B08FFEF29E688E1FC
S1130A40F15020408040E1F700C000006DEF70E0FD
S1130A50C8010E94910368EF70E0C8010E949103ED
S1130A606AE975E0C7010E94D50A892B01F76DEE8A
S1130A7070E0C8010E94910368EA75E08E2D9F2DF5
S1130A800E94D50A9A838983AE014F5F5F4F6FEA54
S1130A9075E006960E94EF0A035C1F4FBC01C80173
S1130AA00E94BF0A8091E005882359F088EE90E007
S1130AB00E945B02C8010E94140285EE90E00E942D
S1130AC05B020F900F90DF91CF911F910F91FF90D8
S1130AD0EF90DF90CF900895EF92FF920F931F93C2
S1130AE0CF93DF93EC01FC01EF51FE4F88EE93E0CE
S1130AF0A0E0B0E080839183A283B383CE010E94FF
S1130B00A8048823A9F08091E005882361F085E595
S1130B1091E00E945B02CE0101960E94140282E5DC
S1130B2091E00E945B02CE010E94070521E049C0CA
S1130B308091E005882321F084E391E00E945B0228
S1130B407E014FE1E41A4EEFF40A88EB9BE0A0E04B
S1130B50B0E0F70180839183A283B3838E010F5A9F
S1130B601F4FCE014F969F938F934E979F938F93D2
S1130B708FE191E09F938F931F930F930E94400BFB
S1130B80B801CE010E94040362EB75E0CE018B54E0
S1130B909F4F0E94D50A4CED55E060E070E0F701EC
S1130BA0408351836283738321E04DB75EB7485F0E
S1130BB05F4F0FB6F8945EBF0FBE4DBF892B09F48B
S1130BC020E0822FDF91CF911F910F91FF90EF9042
S1130BD008950F931F93CF93DF93EC01FC01EF5122
S1130BE0FE4F84EF91E0A0E0B0E080839183A28384
S1130BF0B38367ED70E0CE010E9491038E010F5A1A
S1130C001F4FCE01895E9D4F9F938F93C2979F93F1
S1130C108F938BEB90E09F938F931F930F930E947E
S1130C20400BB801CE010E9404036CEA70E0CE01CF
S1130C300E9491038FE990E09F938F931F930F93EA
S1130C400E94400BB80188810E9443088DB79EB76B
S1130C500C960FB6F8949EBF0FBE8DBFDF91CF9157
S1130C601F910F9108950E94EB020E94EF0268E029
S1130C7070E080E00E9425087894C4E08BB18C2752
S1130C808BB98BE593E00E946C058823B9F35A9ADB
S1130C9084E791E00E945B028BE593E00E94E90502
S1130CA02FEF80E792E0215080409040E1F700C0B0
S1130CB0000083E08093E1054091DB055091DC0561
S1130CC06091DD057091DE0580E091E00E946E0286
S1130CD0F3CF682F70E080E090E00E943A0925E1AC
S1130CE037EC41EB5EE30E94C80920E030E04AE7BC
S1130CF052E40E949F080E94350A0E940B0967BDB6
S1130D0008950F931F93CF93DF9300D0CDB7DEB731
S1130D109BB180E189278BB98091DB059091DC053B
S1130D20A091DD05B091DE058093D7059093D80599
S1130D30A093D905B093DA0588E191E00E942C07CD
S1130D40BC018FE492E00E9488088AEFEFE4F2E0AD
S1130D50DF011D928A95E9F78EE0E1ECF5E0A3E26C
S1130D60B1E001900D928A95E1F788E191E00E944B
S1130D70F507BC018FE492E00E94880888EC90E0BB
S1130D80A0E0B0E080933C0590933D05A0933E0520
S1130D90B0933F058BE593E00E941E044CE251E0C2
S1130DA06AE370E080E194E00E94A00A9A83898358
S1130DB0892B51F189E790E00E945B0289819A8135
S1130DC0AE014F5F5F4F6FEC75E001960E94EF0A32
S1130DD08C01FC01808190E0C0970A97A8F48BE60F
S1130DE090E00E945B02C8010E94140288E690E031
S1130DF00E945B02C8010E94820A8093D605C80142
S1130E000E94820A0E9469069BB180E189278BB9FE
S1130E100F900F90DF91CF911F910F9108950F9331
S1130E201F93CF93DF93EB0109900020E9F72197FB
S1130E30C61BD70BFC01D083C1838C010E5F1F4FEF
S1130E40AE01C8010E94C60AC8018C0F9D1FDF9124
S1130E50CF911F910F910895CF93DF93EC01FC0183
S1130E60E95CFE4F80E1808361ED75E0CE01875C33
S1130E709E4F0E940F07FC0184E0808382E08183FF
S1130E80DE01AD5CBD4F8C918823B1F086E0818397
S1130E9012968C91813019F48EE0818304C08230E3
S1130EA011F48EE18183DE01AA5CBD4F8C91813007
S1130EB019F481818062818312828CE38383888127
S1130EC0882331F0BE01CF0104960E940F0704C0AD
S1130ED014821582CF010696FE01ED5CFD4F208140
S1130EE0222341F0BF010E940F07BE016C5C7D4FBD
S1130EF00E940F079E01295C3E4F821B930BC85C26
S1130F00DE4F2EEF280F2883DF91CF910895CF92E3
S1130F10DF92EF92FF920F931F93CF93DF93EC0135
S1130F207C018FE6E80EF11CF70101900020E9F73F
S1130F3031978F010E191F09BE01655F7F4FFB01B9
S1130F4001900020E9F731979F01261B370B8A8512
S1130F50811103C02E5F3F4F02C02C5F3F4F200F13
S1130F60311FFE01E95CFE4F880F80638083319658
S1130F70422F4F77220F232F221F330B3195211538
S1130F80310509F140684193F3CFFE01EF5CFD4F59
S1130F908181D6018C93808111968C93B2E0CB0E23
S1130FA0D11C80819181019691838083A801B7012E
S1130FB0C6010E94AD0A0C0D1D1DC95CDE4FC8019F
S1130FC08C1B9D0B09C04193CF010E940F076C013C
S1130FD08A858111DACFEACFDF91CF911F910F91EA
S1130FE0FF90EF90DF90CF9008950F931F93CF93CE
S1130FF0DF93EC018C01095C1E4F82E8F8018083C9
S1131000E650FF4F80819181DE01A75CBE4F9C9327
S113101011968C93019691838083BE01655F7F4F07
S1131020CE01855C9E4F0E940F072A85FC01219307
S1131030CF01801B910BC85CDE4F2EEF280F288355
S1131040DF91CF911F910F910895519A509881117A
S11310500DC082E08093C00088E18093C10086E0E7
S11310608093C2007093C5006093C40008958111F9
S113107008C0E0ECF0E080818823ECF78091C600A2
S1131080089580E00895CF93DF93811111C0FB018F
S11310909081992369F0DB011196E0ECF0E0C6EC55
S11310A0D0E0808185FFFDCF98839D919111F9CF88
S11310B0DF91CF910895CF93DF93811114C0FB0189
S11310C08491882381F0A0ECB0E0C6ECD0E0FB0171
S11310D08C9185FFFDCF6F5F7F4FE491E883FB0127
S11310E084918111F4CFDF91CF910895811106C0CD
S11310F08091C000881F8827881F089580E0089584
S1131100E0ECF0E0908195FFFDCF8093C600089558
S11311100F931F93CF93DF936115710551F08C01E9
S1131120EC01060F171F89910E948008C017D10790
S1131130D1F7DF91CF911F910F9108955058BB279C
S1131140AA270E94B6080C948E090E94800938F0E0
S11311500E94870920F039F49F3F19F426F40C9477
S11311607D090EF4E095E7FB0C947709E92F0E94C2
S11311709F0958F3BA17620773078407950720F08D
S113118079F4A6F50C94C1090EF4E0950B2EBA2F50
S1131190A02D0B01B90190010C01CA01A001112479
S11311A0FF27591B99F0593F50F4503E68F11A1625
S11311B0F040A22F232F342F4427585FF3CF4695B6
S11311C037952795A795F0405395C9F77EF41F16D8
S11311D0BA0B620B730B840BBAF09150A1F0FF0FA2
S11311E0BB1F661F771F881FC2F70EC0BA0F621F8E
S11311F0731F841F48F4879577956795B795F7957E
S11312009E3F08F0B0CF9395880F08F09927EE0F12
S11312109795879508950E94A70988F09F5798F09D
S1131220B92F9927B751B0F0E1F0660F771F881FE7
S1131230991F1AF0BA95C9F714C0B13091F00E9401
S1131240C109B1E008950C94C109672F782F88274C
S1131250B85F39F0B93FCCF3869577956795B39528
S1131260D9F73EF490958095709561957F4F8F4F97
S11312709F4F0895E89409C097FB3EF4909580959C
S1131280709561957F4F8F4F9F4F9923A9F0F92F48
S113129096E9BB279395F695879577956795B795C6
S11312A0F111F8CFFAF4BB0F11F460FF1BC06F5FAC
S11312B07F4F8F4F9F4F16C0882311F096E911C0BE
S11312C0772321F09EE8872F762F05C0662371F0DF
S11312D096E8862F70E060E02AF09A95660F771FF3
S11312E0881FDAF7880F9695879597F9089597F9E7
S11312F09F6780E870E060E008959FEF80EC0895B8
S113130000240A94161617061806090608950024E0
S11313100A9412161306140605060895092E03945A
S1131320000C11F4882352F0BB0F40F4BF2B11F4CE
S113133060FF04C06F5F7F4F8F4F9F4F089557FD2D
S11313409058440F551F59F05F3F71F04795880F2F
S113135097FB991F61F09F3F79F0879508951216C6
S113136013061406551FF2CF4695F1DF08C0161672
S113137017061806991FF1CF869571056105089423
S11313800895E894BB2766277727CB0197F908953A
S11313900E94DB090C948E090E94800938F00E9497
S11313A0870920F0952311F00C9477090C947D099A
S11313B011240C94C2090E949F0970F3959FC1F3F4
S11313C0950F50E0551F629FF001729FBB27F00DEF
S11313D0B11D639FAA27F00DB11DAA1F649F662744
S11313E0B00DA11D661F829F2227B00DA11D621F93
S11313F0739FB00DA11D621F839FA00D611D221F4D
S1131400749F3327A00D611D231F849F600D211D30
S1131410822F762F6A2F11249F5750409AF0F1F0B3
S113142088234AF0EE0FFF1FBB1F661F771F881F1C
S113143091505040A9F79E3F510580F00C947709D4
S11314400C94C2095F3FE4F3983ED4F386957795F4
S11314506795B795F795E7959F5FC1F7FE2B880FC2
S1131460911D9695879597F908950E94A709E8F02C
S11314709E37E8F09639B8F49E3848F4672F782FF1
S11314808827985FF9CF86957795679593959539D1
S1131490D0F3B62FB1706B0F711D811D20F48795A9
S11314A07795679593950C94590A0C94740A0C9447
S11314B0C209882371F4772321F09850872B762F63
S11314C007C0662311F499270DC09051862B70E054
S11314D060E02AF09A95660F771F881FDAF7880F65
S11314E09695879597F908959F3F31F0915020F490
S11314F0879577956795B795880F911D96958795EC
S113150097F90895FC0188279927E89421912032BE
S1131510E9F3293010F02E30C8F32B3241F02D328C
S113152039F4689404C00E94160B820F911D219116
S113153020532A30C0F31EF4909581959F4F08954F
S1131540FC014150504030F001900616D1F731971C
S1131550CF0108958827992708956817790768F4B3
S1131560FB01DC01E40FF51FA40FB51F02C00290BC
S11315700E9241505040D8F708950C944E0DFB0143
S1131580DC0101900D920020E1F70895FB01DC01DC
S11315904150504048F001900D920020C9F701C01D
S11315A01D9241505040E0F70895FB01519155239D
S11315B0A9F0BF01DC014D9145174111E1F759F440
S11315C0CD010190002049F04D9140154111C9F31E
S11315D0FB014111EFCF81E090E001970895FA01FA
S11315E0A191B081009719F41097E1F0CD01DC01CD
S11315F0CD010D90002011F4C00113C0FB01219115
S1131600222319F02015D9F7F3CFFB0121912015DE
S113161019F41E92119606C02223C1F70D900020E2
S1131620A1F7D001FA01A193B08308957AE0979FBE
S1131630902D879F802D910D11240895AEE0B0E088
S1131640E4E2FBE00C940A0E0D891E8986E08C838B
S11316501A8309838FEF9FE79E838D83AE01475ED4
S11316605F4F6F89788DCE0101960E94620BEF81E6
S1131670F885E00FF11F10822E96E4E00C94260EFC
S1131680AEE0B0E0E6E4FBE00C940A0E0D891E899E
S11316908EE08C831A8309838FEF9FE79E838D836B
S11316A0AE01475E5F4F6F89788DCE0101960E942F
S11316B0620BEF81F885E00FF11F10822E96E4E0B3
S11316C00C94260EABE0B0E0E8E6FBE00C94FC0DD5
S11316D06C017B018A01FC0117821682838181FFE0
S11316E0CCC1CE0101963C01F6019381F70193FD33
S11316F0859193FF81917F01882309F4BAC18532D2
S113170039F493FD859193FF81917F01853229F40A
S1131710B60190E00E94620DE7CF912C212C312C70
S1131720FFE1F315D8F08B3279F038F4803279F098
S11317308332A1F4232D20611DC08D3261F08033EA
S113174069F4232D216016C0832D8260382EE32D89
S1131750E4603E2E2AC0F32DF8601DC037FC2DC076
S113176020ED280F2A3040F08E32B9F436FC81C1C6
S1131770232D2064322E19C036FE06C08AE0989EBE
S1131780200D1124922E11C0EAE02E9E200D11246A
S1131790222EF32DF0623F2E08C08C3621F4832DC7
S11317A08068382E02C0883641F4F70193FD859194
S11317B093FF81917F018111B3CF982F9F7D955421
S11317C0933028F40C5F1F4F9FE399830DC0833639
S11317D031F0833771F0833509F059C021C0F80125
S11317E0808189830E5F1F4F88248394912C530139
S11317F013C02801F2E04F0E511CF801A080B18003
S113180036FE03C0692D70E002C06FEF7FEFC501A3
S11318100E94570D4C018201F32DFF773F2E16C015
S1131820280122E0420E511CF801A080B18036FE4E
S113183003C0692D70E002C06FEF7FEFC5010E9405
S1131840430D4C01F32DF0683F2E820133FC1BC085
S1131850822D90E088169906B0F4B60180E290E0FB
S11318600E94620D2A94F4CFF50137FC859137FE6E
S113187081915F01B60190E00E94620D21102A94CB
S113188021E0821A91088114910471F7E8C084362A
S113189011F0893641F5F80137FE07C06081718186
S11318A0828193810C5F1F4F08C060817181072E74
S11318B0000C880B990B0E5F1F4FF32DFF763F2E04
S11318C097FF09C090958095709561957F4F8F4FD4
S11318D09F4FF0683F2E2AE030E0A3010E949E0D46
S11318E0882E861845C0853731F4232D2F7EB22EDD
S11318F02AE030E025C0932D997FB92E8F36C1F0B0
S113190018F4883579F0B5C0803719F0883721F09C
S1131910B0C0E92FE061BE2EB4FE0DC0FB2DF46013
S1131920BF2E09C034FE0AC0292F2660B22E06C07D
S113193028E030E005C020E130E002C020E132E0E0
S1131940F801B7FE07C060817181828193810C5FC9
S11319501F4F06C06081718180E090E00E5F1F4FD1
S1131960A3010E949E0D882E8618FB2DFF773F2E23
S113197036FE0DC0232D2E7FA22E891458F434FE7A
S11319800BC032FC09C0832D8E7EA82E05C0B82C56
S1131990A32C03C0B82C01C0B92CA4FE0FC0FE01B7
S11319A0E80DF11D8081803321F49A2D997EA92EB2
S11319B009C0A2FE06C0B394B39404C08A2D8678ED
S11319C009F0B394A3FC11C0A0FE06C0B21488F4BD
S11319D0280C922C9B180EC0B21460F4B60180E25D
S11319E090E00E94620DB394F7CFB21418F42B1850
S11319F002C0982C212CA4FE10C0B60180E390E014
S1131A000E94620DA2FE17C0A1FC03C088E790E00B
S1131A1002C088E590E0B6010CC08A2D867859F0A2
S1131A20A1FE02C08BE201C080E2A7FC8DE2B601F8
S1131A3090E00E94620D891438F4B60180E390E0CE
S1131A400E94620D9A94F7CF8A94F301E80DF11D78
S1131A508081B60190E00E94620D8110F5CF2220B2
S1131A6009F442CEB60180E290E00E94620D2A940D
S1131A70F6CFF6018681978102C08FEF9FEF2B96F8
S1131A80E2E10C94180EFC010590615070400110C5
S1131A90D8F7809590958E0F9F1F0895FB01DC0168
S1131AA002C001900D9241505040D8F70895FC01B6
S1131AB06150704001900110D8F7809590958E0F79
S1131AC09F1F08950F931F93CF93DF93FB012381EF
S1131AD021FD03C08FEF9FEF2CC022FF16C046816B
S1131AE05781248135814217530744F4A081B18181
S1131AF09D012F5F3F4F318320838C932681378153
S1131B002F5F3F4F3783268314C08B01EC01FB0109
S1131B100084F185E02D0995892BE1F6D80116960C
S1131B208D919C911797019617969C938E93169777
S1131B30CE01DF91CF911F910F910895FA01AA2749
S1131B40283051F1203181F1E8946F936E7F6E5FFC
S1131B507F4F8F4F9F4FAF4FB1E03ED0B4E03CD0AA
S1131B60670F781F891F9A1FA11D680F791F8A1F8D
S1131B70911DA11D6A0F711D811D911DA11D20D0F4
S1131B8009F468943F912AE0269F11243019305DAE
S1131B903193DEF6CF010895462F4770405D41939F
S1131BA0B3E00FD0C9F7F6CF462F4F70405D4A33EC
S1131BB018F0495D31FD4052419302D0A9F7EACFB4
S1131BC0B4E0A6959795879577956795BA95C9F7E3
S1131BD000976105710508959B01AC010A2E0694D6
S1131BE05795479537952795BA95C9F7620F731F8F
S1131BF0841F951FA01D08952F923F924F925F92CC
S1131C006F927F928F929F92AF92BF92CF92DF9208
S1131C10EF92FF920F931F93CF93DF93CDB7DEB76D
S1131C20CA1BDB0B0FB6F894DEBF0FBECDBF099401
S1131C302A88398848885F846E847D848C849B8458
S1131C40AA84B984C884DF80EE80FD800C811B8166
S1131C50AA81B981CE0FD11D0FB6F894DEBF0FBE95
S10D1C60CDBFED010895F894FFCF05
S1131C6AF401000000002302B80B00000000BB01CD
S1131C7A6400000000008106426574614A616E00D6
S1131C8A0000007465737400000000000000000086
S1131C9A0000000000000000000000000000000036
S1131CAA0000000000000000000000000000000026
S1131CBA0000000000000000000000000000000016
S1131CCA0000000000000000000000000000000006
S1131EAA00000000000000000000000000010025FE
S1131EBA0000230024000000000000007C42616E40
S1131ECA656761732D526F6A61737C50332D503488
S1131EDA00000000000000000000656C5F6261748D
S1131EEA6F5F6D616C6F3933000000000000000001
S1131EFA00000000000000000000000000000000D4
S1131F0A00000000000000000000000000000000C3
S1131F1A00000000000000000000000000000000B3
S1131F2A00000000000000000000000000000000A3
S1131F3A0000000000000000000000000000000093
S1131F4A0000000000000000000000000000000083
S1131F5A0000000000000000000000000000000073
S1131F6A0000000000000000000000000000000063
S1131F7A2000000000000000000000000000000033
S1131F8A0000000000000000000000000000000043
S1131F9A0000000000000000000000000000000033
S1131FAA0000000000000000000000000000000023
S1131FBA0000000000000000000000000000000013
S1131FCA0000000000000000000000000000000003
S1131FDA00000000000000000000000000000000F3
S1131FEA00000000000000000000000000000000E3
S1131FFA00000000000000000000000000000000D3
S113200A00000000000000000000000000000000C2
S113201A00000000000000000000000000000000B2
S113202A00000000000000000000000000000000A2
S113203A0000000000000000000000000000000092
S113204A0000000000000000000000000000000082
S113205A0000000000000000000000000000000072
S113206A0000000000000000000000000000000062
S113207A0000000000000000000000000000000052
S113208A0000000000000000000000000000000042
S113209A000000000000000000000000DC05000051
S11320AA3139322E3136382E312E390000000000F3
S11320BA0000000000000000000000000000000012
S11320CA0000000000000000000000000000000002
S11320DA000031383833000000000000746573745E
S11320EA00643123644573747564696F23642564D9
S11320FA236425642364256423004552524F520005
S113210A2B43574A41503A0053544149502C002218
S113211A22005749464920434F4E4E4543544544AD
S113212A00446973702F4163747561646F72007D32
S109213A004D5154540055
S9030000FC
